{
  "_format": "hh-sol-artifact-1",
  "contractName": "Raffle",
  "sourceName": "contracts/Raffle.sol",
  "abi": [
    {
      "inputs": [
        {
          "internalType": "address",
          "name": "vrfCoordinatorV2",
          "type": "address"
        },
        {
          "internalType": "uint256",
          "name": "entranceFee",
          "type": "uint256"
        },
        {
          "internalType": "bytes32",
          "name": "gasLane",
          "type": "bytes32"
        },
        {
          "internalType": "uint64",
          "name": "subscriptionId",
          "type": "uint64"
        },
        {
          "internalType": "uint16",
          "name": "callbackGasLimit",
          "type": "uint16"
        },
        {
          "internalType": "uint256",
          "name": "interval",
          "type": "uint256"
        }
      ],
      "stateMutability": "nonpayable",
      "type": "constructor"
    },
    {
      "inputs": [
        {
          "internalType": "address",
          "name": "have",
          "type": "address"
        },
        {
          "internalType": "address",
          "name": "want",
          "type": "address"
        }
      ],
      "name": "OnlyCoordinatorCanFulfill",
      "type": "error"
    },
    {
      "inputs": [],
      "name": "Raffle__NotEnoughETHEntered",
      "type": "error"
    },
    {
      "inputs": [],
      "name": "Raffle__NotOpen",
      "type": "error"
    },
    {
      "inputs": [
        {
          "internalType": "uint256",
          "name": "currentBalance",
          "type": "uint256"
        },
        {
          "internalType": "uint256",
          "name": "numPlayers",
          "type": "uint256"
        },
        {
          "internalType": "uint256",
          "name": "raffleState",
          "type": "uint256"
        }
      ],
      "name": "Raffle__UpKeepNotNeeded",
      "type": "error"
    },
    {
      "anonymous": false,
      "inputs": [
        {
          "indexed": true,
          "internalType": "address",
          "name": "player",
          "type": "address"
        }
      ],
      "name": "RaffleEnter",
      "type": "event"
    },
    {
      "anonymous": false,
      "inputs": [
        {
          "indexed": true,
          "internalType": "uint256",
          "name": "requestId",
          "type": "uint256"
        }
      ],
      "name": "RequestedRaffleWinner",
      "type": "event"
    },
    {
      "anonymous": false,
      "inputs": [
        {
          "indexed": true,
          "internalType": "address",
          "name": "winner",
          "type": "address"
        }
      ],
      "name": "WinnerPicked",
      "type": "event"
    },
    {
      "inputs": [
        {
          "internalType": "bytes",
          "name": "",
          "type": "bytes"
        }
      ],
      "name": "checkUpkeep",
      "outputs": [
        {
          "internalType": "bool",
          "name": "upKeepNeeded",
          "type": "bool"
        },
        {
          "internalType": "bytes",
          "name": "",
          "type": "bytes"
        }
      ],
      "stateMutability": "view",
      "type": "function"
    },
    {
      "inputs": [],
      "name": "enterRaffle",
      "outputs": [],
      "stateMutability": "payable",
      "type": "function"
    },
    {
      "inputs": [],
      "name": "gerRequestConfirmations",
      "outputs": [
        {
          "internalType": "uint256",
          "name": "",
          "type": "uint256"
        }
      ],
      "stateMutability": "pure",
      "type": "function"
    },
    {
      "inputs": [],
      "name": "getEntranceFee",
      "outputs": [
        {
          "internalType": "uint256",
          "name": "",
          "type": "uint256"
        }
      ],
      "stateMutability": "view",
      "type": "function"
    },
    {
      "inputs": [],
      "name": "getLastestTimeStamp",
      "outputs": [
        {
          "internalType": "uint256",
          "name": "",
          "type": "uint256"
        }
      ],
      "stateMutability": "view",
      "type": "function"
    },
    {
      "inputs": [],
      "name": "getNumWords",
      "outputs": [
        {
          "internalType": "uint256",
          "name": "",
          "type": "uint256"
        }
      ],
      "stateMutability": "pure",
      "type": "function"
    },
    {
      "inputs": [],
      "name": "getNumberOfPlayers",
      "outputs": [
        {
          "internalType": "uint256",
          "name": "",
          "type": "uint256"
        }
      ],
      "stateMutability": "view",
      "type": "function"
    },
    {
      "inputs": [
        {
          "internalType": "uint256",
          "name": "index",
          "type": "uint256"
        }
      ],
      "name": "getPlayer",
      "outputs": [
        {
          "internalType": "address",
          "name": "",
          "type": "address"
        }
      ],
      "stateMutability": "view",
      "type": "function"
    },
    {
      "inputs": [],
      "name": "getRaffleState",
      "outputs": [
        {
          "internalType": "enum Raffle.RaffleState",
          "name": "",
          "type": "uint8"
        }
      ],
      "stateMutability": "view",
      "type": "function"
    },
    {
      "inputs": [],
      "name": "getRecentWinner",
      "outputs": [
        {
          "internalType": "address",
          "name": "",
          "type": "address"
        }
      ],
      "stateMutability": "view",
      "type": "function"
    },
    {
      "inputs": [
        {
          "internalType": "bytes",
          "name": "",
          "type": "bytes"
        }
      ],
      "name": "performUpkeep",
      "outputs": [],
      "stateMutability": "nonpayable",
      "type": "function"
    },
    {
      "inputs": [
        {
          "internalType": "uint256",
          "name": "requestId",
          "type": "uint256"
        },
        {
          "internalType": "uint256[]",
          "name": "randomWords",
          "type": "uint256[]"
        }
      ],
      "name": "rawFulfillRandomWords",
      "outputs": [],
      "stateMutability": "nonpayable",
      "type": "function"
    }
  ],
  "bytecode": "0x6101606040523480156200001257600080fd5b50604051620017e8380380620017e88339818101604052810190620000389190620001a9565b858073ffffffffffffffffffffffffffffffffffffffff1660808173ffffffffffffffffffffffffffffffffffffffff1660601b81525050508460a081815250508573ffffffffffffffffffffffffffffffffffffffff1660c08173ffffffffffffffffffffffffffffffffffffffff1660601b815250508360e081815250508267ffffffffffffffff166101008167ffffffffffffffff1660c01b815250508161ffff166101208161ffff1660f01b815250506000600160146101000a81548160ff02191690836001811115620001155762000114620002af565b5b02179055504260028190555080610140818152505050505050505062000365565b6000815190506200014781620002e3565b92915050565b6000815190506200015e81620002fd565b92915050565b600081519050620001758162000317565b92915050565b6000815190506200018c8162000331565b92915050565b600081519050620001a3816200034b565b92915050565b60008060008060008060c08789031215620001c957620001c8620002de565b5b6000620001d989828a0162000136565b9650506020620001ec89828a016200017b565b9550506040620001ff89828a016200014d565b94505060606200021289828a0162000192565b93505060806200022589828a0162000164565b92505060a06200023889828a016200017b565b9150509295509295509295565b6000620002528262000271565b9050919050565b6000819050919050565b600061ffff82169050919050565b600073ffffffffffffffffffffffffffffffffffffffff82169050919050565b6000819050919050565b600067ffffffffffffffff82169050919050565b7f4e487b7100000000000000000000000000000000000000000000000000000000600052602160045260246000fd5b600080fd5b620002ee8162000245565b8114620002fa57600080fd5b50565b620003088162000259565b81146200031457600080fd5b50565b620003228162000263565b81146200032e57600080fd5b50565b6200033c8162000291565b81146200034857600080fd5b50565b62000356816200029b565b81146200036257600080fd5b50565b60805160601c60a05160c05160601c60e0516101005160c01c6101205160f01c6101405161140e620003da6000396000610799015260006106550152600061063201526000610611015260006105d50152600081816102b401526103b10152600081816102f10152610345015261140e6000f3fe6080604052600436106100a75760003560e01c806353a2c19a1161006457806353a2c19a146101895780636e04ff0d146101b45780638ba05b0e146101f2578063e55ae4e81461021d578063f24d45541461025a578063fd6673f514610285576100a7565b806309bc33a7146100ac578063115cbaf5146100d75780631fe543e3146101025780632cfcc5391461012b5780634585e33b14610135578063473f1ddc1461015e575b600080fd5b3480156100b857600080fd5b506100c16102b0565b6040516100ce9190611002565b60405180910390f35b3480156100e357600080fd5b506100ec6102d8565b6040516100f99190610fe7565b60405180910390f35b34801561010e57600080fd5b5061012960048036038101906101249190610dcc565b6102ef565b005b6101336103af565b005b34801561014157600080fd5b5061015c60048036038101906101579190610cdc565b61051e565b005b34801561016a57600080fd5b5061017361071d565b6040516101809190610f20565b60405180910390f35b34801561019557600080fd5b5061019e610747565b6040516101ab9190611002565b60405180910390f35b3480156101c057600080fd5b506101db60048036038101906101d69190610d29565b610756565b6040516101e9929190610f64565b60405180910390f35b3480156101fe57600080fd5b5061020761080c565b6040516102149190611002565b60405180910390f35b34801561022957600080fd5b50610244600480360381019061023f9190610d72565b610816565b6040516102519190610f20565b60405180910390f35b34801561026657600080fd5b5061026f61085d565b60405161027c9190611002565b60405180910390f35b34801561029157600080fd5b5061029a61086a565b6040516102a79190611002565b60405180910390f35b60007f0000000000000000000000000000000000000000000000000000000000000000905090565b6000600160149054906101000a900460ff16905090565b7f000000000000000000000000000000000000000000000000000000000000000073ffffffffffffffffffffffffffffffffffffffff163373ffffffffffffffffffffffffffffffffffffffff16146103a157337f00000000000000000000000000000000000000000000000000000000000000006040517f1cf993f4000000000000000000000000000000000000000000000000000000008152600401610398929190610f3b565b60405180910390fd5b6103ab8282610876565b5050565b7f0000000000000000000000000000000000000000000000000000000000000000341015610409576040517fbd4e069500000000000000000000000000000000000000000000000000000000815260040160405180910390fd5b6000600181111561041d5761041c6112ee565b5b600160149054906101000a900460ff16600181111561043f5761043e6112ee565b5b14610476576040517f1425571c00000000000000000000000000000000000000000000000000000000815260040160405180910390fd5b6000339080600181540180825580915050600190039060005260206000200160009091909190916101000a81548173ffffffffffffffffffffffffffffffffffffffff021916908373ffffffffffffffffffffffffffffffffffffffff1602179055503373ffffffffffffffffffffffffffffffffffffffff167f0805e1d667bddb8a95f0f09880cf94f403fb596ce79928d9f29b74203ba284d460405160405180910390a2565b600061053860405180602001604052806000815250610756565b509050806105a75747600080549050600160149054906101000a900460ff166001811115610569576105686112ee565b5b6040517f3a8d608600000000000000000000000000000000000000000000000000000000815260040161059e9392919061101d565b60405180910390fd5b60018060146101000a81548160ff021916908360018111156105cc576105cb6112ee565b5b021790555060007f000000000000000000000000000000000000000000000000000000000000000073ffffffffffffffffffffffffffffffffffffffff16635d3b1d307f00000000000000000000000000000000000000000000000000000000000000007f000000000000000000000000000000000000000000000000000000000000000060037f000000000000000000000000000000000000000000000000000000000000000060016040518663ffffffff1660e01b8152600401610696959493929190610f94565b602060405180830381600087803b1580156106b057600080fd5b505af11580156106c4573d6000803e3d6000fd5b505050506040513d601f19601f820116820180604052508101906106e89190610d9f565b9050807fcd6e45c8998311cab7e9d4385596cac867e20a0587194b954fa3a731c93ce78b60405160405180910390a250505050565b6000600160009054906101000a900473ffffffffffffffffffffffffffffffffffffffff16905090565b6000600163ffffffff16905090565b600060606000600160149054906101000a900460ff16600181111561077e5761077d6112ee565b5b60006001811115610792576107916112ee565b5b14905060007f0000000000000000000000000000000000000000000000000000000000000000600254426107c691906110fd565b119050600080600080549050119050600080471190508380156107e65750825b80156107ef5750805b80156107f85750815b80156108015750855b955050505050915091565b6000600254905090565b600080828154811061082b5761082a61131d565b5b9060005260206000200160009054906101000a900473ffffffffffffffffffffffffffffffffffffffff169050919050565b6000600361ffff16905090565b60008080549050905090565b60008080549050826000815181106108915761089061131d565b5b60200260200101516108a3919061125f565b905060008082815481106108ba576108b961131d565b5b9060005260206000200160009054906101000a900473ffffffffffffffffffffffffffffffffffffffff16905080600160006101000a81548173ffffffffffffffffffffffffffffffffffffffff021916908373ffffffffffffffffffffffffffffffffffffffff1602179055506000600160146101000a81548160ff0219169083600181111561094e5761094d6112ee565b5b0217905550600067ffffffffffffffff81111561096e5761096d61134c565b5b60405190808252806020026020018201604052801561099c5781602001602082028036833780820191505090505b50600090805190602001906109b2929190610aa7565b504260028190555060008173ffffffffffffffffffffffffffffffffffffffff16476040516109e090610f0b565b60006040518083038185875af1925050503d8060008114610a1d576040519150601f19603f3d011682016040523d82523d6000602084013e610a22565b606091505b5050905080610a5d576040517fbd4e069500000000000000000000000000000000000000000000000000000000815260040160405180910390fd5b8173ffffffffffffffffffffffffffffffffffffffff167f5b690ec4a06fe979403046eaeea5b3ce38524683c3001f662c8b5a829632f7df60405160405180910390a25050505050565b828054828255906000526020600020908101928215610b20579160200282015b82811115610b1f5782518260006101000a81548173ffffffffffffffffffffffffffffffffffffffff021916908373ffffffffffffffffffffffffffffffffffffffff16021790555091602001919060010190610ac7565b5b509050610b2d9190610b31565b5090565b5b80821115610b4a576000816000905550600101610b32565b5090565b6000610b61610b5c84611079565b611054565b90508083825260208201905082856020860282011115610b8457610b83611385565b5b60005b85811015610bb45781610b9a8882610cb2565b845260208401935060208301925050600181019050610b87565b5050509392505050565b6000610bd1610bcc846110a5565b611054565b905082815260208101848484011115610bed57610bec61138a565b5b610bf88482856111ec565b509392505050565b600082601f830112610c1557610c14611380565b5b8135610c25848260208601610b4e565b91505092915050565b60008083601f840112610c4457610c43611380565b5b8235905067ffffffffffffffff811115610c6157610c6061137b565b5b602083019150836001820283011115610c7d57610c7c611385565b5b9250929050565b600082601f830112610c9957610c98611380565b5b8135610ca9848260208601610bbe565b91505092915050565b600081359050610cc1816113c1565b92915050565b600081519050610cd6816113c1565b92915050565b60008060208385031215610cf357610cf2611394565b5b600083013567ffffffffffffffff811115610d1157610d1061138f565b5b610d1d85828601610c2e565b92509250509250929050565b600060208284031215610d3f57610d3e611394565b5b600082013567ffffffffffffffff811115610d5d57610d5c61138f565b5b610d6984828501610c84565b91505092915050565b600060208284031215610d8857610d87611394565b5b6000610d9684828501610cb2565b91505092915050565b600060208284031215610db557610db4611394565b5b6000610dc384828501610cc7565b91505092915050565b60008060408385031215610de357610de2611394565b5b6000610df185828601610cb2565b925050602083013567ffffffffffffffff811115610e1257610e1161138f565b5b610e1e85828601610c00565b9150509250929050565b610e3181611131565b82525050565b610e4081611143565b82525050565b610e4f8161114f565b82525050565b6000610e60826110d6565b610e6a81856110e1565b9350610e7a8185602086016111fb565b610e8381611399565b840191505092915050565b610e97816111c8565b82525050565b6000610eaa6000836110f2565b9150610eb5826113aa565b600082019050919050565b610ec98161116c565b82525050565b610ed8816111da565b82525050565b610ee78161119a565b82525050565b610ef6816111a4565b82525050565b610f05816111b4565b82525050565b6000610f1682610e9d565b9150819050919050565b6000602082019050610f356000830184610e28565b92915050565b6000604082019050610f506000830185610e28565b610f5d6020830184610e28565b9392505050565b6000604082019050610f796000830185610e37565b8181036020830152610f8b8184610e55565b90509392505050565b600060a082019050610fa96000830188610e46565b610fb66020830187610efc565b610fc36040830186610ec0565b610fd06060830185610ecf565b610fdd6080830184610eed565b9695505050505050565b6000602082019050610ffc6000830184610e8e565b92915050565b60006020820190506110176000830184610ede565b92915050565b60006060820190506110326000830186610ede565b61103f6020830185610ede565b61104c6040830184610ede565b949350505050565b600061105e61106f565b905061106a828261122e565b919050565b6000604051905090565b600067ffffffffffffffff8211156110945761109361134c565b5b602082029050602081019050919050565b600067ffffffffffffffff8211156110c0576110bf61134c565b5b6110c982611399565b9050602081019050919050565b600081519050919050565b600082825260208201905092915050565b600081905092915050565b60006111088261119a565b91506111138361119a565b92508282101561112657611125611290565b5b828203905092915050565b600061113c8261117a565b9050919050565b60008115159050919050565b6000819050919050565b6000819050611167826113ad565b919050565b600061ffff82169050919050565b600073ffffffffffffffffffffffffffffffffffffffff82169050919050565b6000819050919050565b600063ffffffff82169050919050565b600067ffffffffffffffff82169050919050565b60006111d382611159565b9050919050565b60006111e58261116c565b9050919050565b82818337600083830152505050565b60005b838110156112195780820151818401526020810190506111fe565b83811115611228576000848401525b50505050565b61123782611399565b810181811067ffffffffffffffff821117156112565761125561134c565b5b80604052505050565b600061126a8261119a565b91506112758361119a565b925082611285576112846112bf565b5b828206905092915050565b7f4e487b7100000000000000000000000000000000000000000000000000000000600052601160045260246000fd5b7f4e487b7100000000000000000000000000000000000000000000000000000000600052601260045260246000fd5b7f4e487b7100000000000000000000000000000000000000000000000000000000600052602160045260246000fd5b7f4e487b7100000000000000000000000000000000000000000000000000000000600052603260045260246000fd5b7f4e487b7100000000000000000000000000000000000000000000000000000000600052604160045260246000fd5b600080fd5b600080fd5b600080fd5b600080fd5b600080fd5b600080fd5b6000601f19601f8301169050919050565b50565b600281106113be576113bd6112ee565b5b50565b6113ca8161119a565b81146113d557600080fd5b5056fea2646970667358221220d06e32d90e0b227a51fdba9bb8456e18a30b26db1b6f93509ff26ba7b6cffcf264736f6c63430008070033",
  "linkReferences": {},
  "deployedLinkReferences": {}
}